{
  "_format": "hh-sol-artifact-1",
  "contractName": "Exchange",
  "sourceName": "contracts/exchange.sol",
  "abi": [
    {
      "inputs": [
        {
          "internalType": "address",
          "name": "_token1",
          "type": "address"
        },
        {
          "internalType": "address",
          "name": "_token2",
          "type": "address"
        },
        {
          "internalType": "uint256",
          "name": "_exchangeRate",
          "type": "uint256"
        }
      ],
      "stateMutability": "nonpayable",
      "type": "constructor"
    },
    {
      "inputs": [
        {
          "internalType": "address",
          "name": "owner",
          "type": "address"
        }
      ],
      "name": "OwnableInvalidOwner",
      "type": "error"
    },
    {
      "inputs": [
        {
          "internalType": "address",
          "name": "account",
          "type": "address"
        }
      ],
      "name": "OwnableUnauthorizedAccount",
      "type": "error"
    },
    {
      "anonymous": false,
      "inputs": [
        {
          "indexed": true,
          "internalType": "address",
          "name": "user",
          "type": "address"
        },
        {
          "indexed": false,
          "internalType": "uint256",
          "name": "token1Amount",
          "type": "uint256"
        },
        {
          "indexed": false,
          "internalType": "uint256",
          "name": "token2Amount",
          "type": "uint256"
        }
      ],
      "name": "ExchangeExecuted",
      "type": "event"
    },
    {
      "anonymous": false,
      "inputs": [
        {
          "indexed": false,
          "internalType": "uint256",
          "name": "newRate",
          "type": "uint256"
        }
      ],
      "name": "ExchangeRateUpdated",
      "type": "event"
    },
    {
      "anonymous": false,
      "inputs": [
        {
          "indexed": true,
          "internalType": "address",
          "name": "previousOwner",
          "type": "address"
        },
        {
          "indexed": true,
          "internalType": "address",
          "name": "newOwner",
          "type": "address"
        }
      ],
      "name": "OwnershipTransferred",
      "type": "event"
    },
    {
      "inputs": [],
      "name": "PRECISION",
      "outputs": [
        {
          "internalType": "uint256",
          "name": "",
          "type": "uint256"
        }
      ],
      "stateMutability": "view",
      "type": "function"
    },
    {
      "inputs": [
        {
          "internalType": "uint256",
          "name": "token1Amount",
          "type": "uint256"
        }
      ],
      "name": "exchange",
      "outputs": [
        {
          "internalType": "uint256",
          "name": "token2Amount",
          "type": "uint256"
        }
      ],
      "stateMutability": "nonpayable",
      "type": "function"
    },
    {
      "inputs": [],
      "name": "exchangeRate",
      "outputs": [
        {
          "internalType": "uint256",
          "name": "",
          "type": "uint256"
        }
      ],
      "stateMutability": "view",
      "type": "function"
    },
    {
      "inputs": [],
      "name": "owner",
      "outputs": [
        {
          "internalType": "address",
          "name": "",
          "type": "address"
        }
      ],
      "stateMutability": "view",
      "type": "function"
    },
    {
      "inputs": [],
      "name": "renounceOwnership",
      "outputs": [],
      "stateMutability": "nonpayable",
      "type": "function"
    },
    {
      "inputs": [],
      "name": "token1",
      "outputs": [
        {
          "internalType": "contract IERC20",
          "name": "",
          "type": "address"
        }
      ],
      "stateMutability": "view",
      "type": "function"
    },
    {
      "inputs": [],
      "name": "token2",
      "outputs": [
        {
          "internalType": "contract IERC20",
          "name": "",
          "type": "address"
        }
      ],
      "stateMutability": "view",
      "type": "function"
    },
    {
      "inputs": [
        {
          "internalType": "address",
          "name": "newOwner",
          "type": "address"
        }
      ],
      "name": "transferOwnership",
      "outputs": [],
      "stateMutability": "nonpayable",
      "type": "function"
    },
    {
      "inputs": [
        {
          "internalType": "uint256",
          "name": "_newRate",
          "type": "uint256"
        }
      ],
      "name": "updateExchangeRate",
      "outputs": [],
      "stateMutability": "nonpayable",
      "type": "function"
    }
  ],
  "bytecode": "0x60806040523480156200001157600080fd5b506040516200101e3803806200101e8339818101604052810190620000379190620002ba565b33600073ffffffffffffffffffffffffffffffffffffffff168173ffffffffffffffffffffffffffffffffffffffff1603620000ad5760006040517f1e4fbdf7000000000000000000000000000000000000000000000000000000008152600401620000a4919062000327565b60405180910390fd5b620000be816200015160201b60201c565b5082600260006101000a81548173ffffffffffffffffffffffffffffffffffffffff021916908373ffffffffffffffffffffffffffffffffffffffff16021790555081600360006101000a81548173ffffffffffffffffffffffffffffffffffffffff021916908373ffffffffffffffffffffffffffffffffffffffff1602179055508060018190555050505062000344565b60008060009054906101000a900473ffffffffffffffffffffffffffffffffffffffff169050816000806101000a81548173ffffffffffffffffffffffffffffffffffffffff021916908373ffffffffffffffffffffffffffffffffffffffff1602179055508173ffffffffffffffffffffffffffffffffffffffff168173ffffffffffffffffffffffffffffffffffffffff167f8be0079c531659141344cd1fd0a4f28419497f9722a3daafe3b4186f6b6457e060405160405180910390a35050565b600080fd5b600073ffffffffffffffffffffffffffffffffffffffff82169050919050565b600062000247826200021a565b9050919050565b62000259816200023a565b81146200026557600080fd5b50565b60008151905062000279816200024e565b92915050565b6000819050919050565b62000294816200027f565b8114620002a057600080fd5b50565b600081519050620002b48162000289565b92915050565b600080600060608486031215620002d657620002d562000215565b5b6000620002e68682870162000268565b9350506020620002f98682870162000268565b92505060406200030c86828701620002a3565b9150509250925092565b62000321816200023a565b82525050565b60006020820190506200033e600083018462000316565b92915050565b610cca80620003546000396000f3fe608060405234801561001057600080fd5b50600436106100935760003560e01c80638da5cb5b116100665780638da5cb5b1461010e578063aaf5eb681461012c578063b9e205ae1461014a578063d21220a714610166578063f2fde38b1461018457610093565b806325be124e146100985780633ba0b9a9146100b657806353556559146100d4578063715018a614610104575b600080fd5b6100a06101a0565b6040516100ad9190610832565b60405180910390f35b6100be6101c6565b6040516100cb9190610866565b60405180910390f35b6100ee60048036038101906100e991906108b2565b6101cc565b6040516100fb9190610866565b60405180910390f35b61010c610522565b005b610116610536565b6040516101239190610900565b60405180910390f35b61013461055f565b6040516101419190610866565b60405180910390f35b610164600480360381019061015f91906108b2565b61056b565b005b61016e6105b4565b60405161017b9190610832565b60405180910390f35b61019e60048036038101906101999190610947565b6105da565b005b600360009054906101000a900473ffffffffffffffffffffffffffffffffffffffff1681565b60015481565b6000808211610210576040517f08c379a0000000000000000000000000000000000000000000000000000000008152600401610207906109d1565b60405180910390fd5b670de0b6b3a764000060015483028161022c5761022b6109f1565b5b04905080600360009054906101000a900473ffffffffffffffffffffffffffffffffffffffff1673ffffffffffffffffffffffffffffffffffffffff166370a08231306040518263ffffffff1660e01b815260040161028b9190610900565b602060405180830381865afa1580156102a8573d6000803e3d6000fd5b505050506040513d601f19601f820116820180604052508101906102cc9190610a35565b101561030d576040517f08c379a000000000000000000000000000000000000000000000000000000000815260040161030490610aae565b60405180910390fd5b600260009054906101000a900473ffffffffffffffffffffffffffffffffffffffff1673ffffffffffffffffffffffffffffffffffffffff166323b872dd3330856040518463ffffffff1660e01b815260040161036c93929190610ace565b6020604051808303816000875af115801561038b573d6000803e3d6000fd5b505050506040513d601f19601f820116820180604052508101906103af9190610b3d565b6103ee576040517f08c379a00000000000000000000000000000000000000000000000000000000081526004016103e590610bb6565b60405180910390fd5b600360009054906101000a900473ffffffffffffffffffffffffffffffffffffffff1673ffffffffffffffffffffffffffffffffffffffff1663a9059cbb33836040518363ffffffff1660e01b815260040161044b929190610bd6565b6020604051808303816000875af115801561046a573d6000803e3d6000fd5b505050506040513d601f19601f8201168201806040525081019061048e9190610b3d565b6104cd576040517f08c379a00000000000000000000000000000000000000000000000000000000081526004016104c490610c4b565b60405180910390fd5b3373ffffffffffffffffffffffffffffffffffffffff167fae964ed62e1b0adba83f496a92999045481c35039c534c5bdd4656921ce9d68b8383604051610515929190610c6b565b60405180910390a2919050565b61052a610660565b61053460006106e7565b565b60008060009054906101000a900473ffffffffffffffffffffffffffffffffffffffff16905090565b670de0b6b3a764000081565b610573610660565b806001819055507f388f446e9526fe5c9af20a5919b342370c8a7c0cb05245afe1e545658fa3cdba816040516105a99190610866565b60405180910390a150565b600260009054906101000a900473ffffffffffffffffffffffffffffffffffffffff1681565b6105e2610660565b600073ffffffffffffffffffffffffffffffffffffffff168173ffffffffffffffffffffffffffffffffffffffff16036106545760006040517f1e4fbdf700000000000000000000000000000000000000000000000000000000815260040161064b9190610900565b60405180910390fd5b61065d816106e7565b50565b6106686107ab565b73ffffffffffffffffffffffffffffffffffffffff16610686610536565b73ffffffffffffffffffffffffffffffffffffffff16146106e5576106a96107ab565b6040517f118cdaa70000000000000000000000000000000000000000000000000000000081526004016106dc9190610900565b60405180910390fd5b565b60008060009054906101000a900473ffffffffffffffffffffffffffffffffffffffff169050816000806101000a81548173ffffffffffffffffffffffffffffffffffffffff021916908373ffffffffffffffffffffffffffffffffffffffff1602179055508173ffffffffffffffffffffffffffffffffffffffff168173ffffffffffffffffffffffffffffffffffffffff167f8be0079c531659141344cd1fd0a4f28419497f9722a3daafe3b4186f6b6457e060405160405180910390a35050565b600033905090565b600073ffffffffffffffffffffffffffffffffffffffff82169050919050565b6000819050919050565b60006107f86107f36107ee846107b3565b6107d3565b6107b3565b9050919050565b600061080a826107dd565b9050919050565b600061081c826107ff565b9050919050565b61082c81610811565b82525050565b60006020820190506108476000830184610823565b92915050565b6000819050919050565b6108608161084d565b82525050565b600060208201905061087b6000830184610857565b92915050565b600080fd5b61088f8161084d565b811461089a57600080fd5b50565b6000813590506108ac81610886565b92915050565b6000602082840312156108c8576108c7610881565b5b60006108d68482850161089d565b91505092915050565b60006108ea826107b3565b9050919050565b6108fa816108df565b82525050565b600060208201905061091560008301846108f1565b92915050565b610924816108df565b811461092f57600080fd5b50565b6000813590506109418161091b565b92915050565b60006020828403121561095d5761095c610881565b5b600061096b84828501610932565b91505092915050565b600082825260208201905092915050565b7f416d6f756e74206d7573742062652067726561746572207468616e2030000000600082015250565b60006109bb601d83610974565b91506109c682610985565b602082019050919050565b600060208201905081810360008301526109ea816109ae565b9050919050565b7f4e487b7100000000000000000000000000000000000000000000000000000000600052601260045260246000fd5b600081519050610a2f81610886565b92915050565b600060208284031215610a4b57610a4a610881565b5b6000610a5984828501610a20565b91505092915050565b7f496e73756666696369656e74206c697175696469747900000000000000000000600082015250565b6000610a98601683610974565b9150610aa382610a62565b602082019050919050565b60006020820190508181036000830152610ac781610a8b565b9050919050565b6000606082019050610ae360008301866108f1565b610af060208301856108f1565b610afd6040830184610857565b949350505050565b60008115159050919050565b610b1a81610b05565b8114610b2557600080fd5b50565b600081519050610b3781610b11565b92915050565b600060208284031215610b5357610b52610881565b5b6000610b6184828501610b28565b91505092915050565b7f546f6b656e31207472616e73666572206661696c656400000000000000000000600082015250565b6000610ba0601683610974565b9150610bab82610b6a565b602082019050919050565b60006020820190508181036000830152610bcf81610b93565b9050919050565b6000604082019050610beb60008301856108f1565b610bf86020830184610857565b9392505050565b7f546f6b656e32207472616e73666572206661696c656400000000000000000000600082015250565b6000610c35601683610974565b9150610c4082610bff565b602082019050919050565b60006020820190508181036000830152610c6481610c28565b9050919050565b6000604082019050610c806000830185610857565b610c8d6020830184610857565b939250505056fea2646970667358221220685751ce5b394af72266bf35dcc5c59f08221312fbabb699060e680ef75b0c8064736f6c63430008140033",
  "linkReferences": {},
  "deployedLinkReferences": {}
}